:04000000FBEF16F00C
:102DCE00026E0250F3EC16F01200AF0EC06E000E43
:102DDE00C16E010EC26E1200016E00D09EA8FED70B
:102DEE0001C0ADFF120012005A6A596A586A576A3A
:102DFE00000EF86E000118EF19F0080EB86E01C043
:102E0E00AFFF0250B06EC00E9412900EAB6E240E39
:102E1E00AC6E1200046E830EC21604C003F01F0EB9
:102E2E000316D8900336D8900334046E0450C212A1
:102E3E00C28200D0C2B2FED7C4CF05F0066A0550DA
:102E4E00066E056AC350051205C001F006C002F0F9
:102E5E0012001200000E096E170E096401D021D067
:102E6E0001A005D0828400F000F000F001D0828431
:102E7E00829400D001C005F002C006F003C007F036
:102E8E0004C008F0D890083207320632053205C069
:102E9E0001F006C002F007C003F008C004F0092AD2
:102EAE00DBD7C80E00F0E82EFDD71200000E066E1E
:102EBE00000E056E03500410D8B421D0010E076E1B
:102ECE0005D0D89003360436072A00D004BE02D0AF
:102EDE00F8D700D0D890053606360350015C045062
:102EEE000258D8A006D00350015E0450025A058045
:102EFE0000D0D89004320332072EECD700D005C094
:102F0E0001F006C002F0120012501310141015102A
:102F1E00D8B429D0010E166E07D0D89012361336BB
:102F2E0014361536162A00D015BE02D0F6D700D0AC
:102F3E0012500E5C13500F58145010581550115853
:102F4E00D8A009D012500E5E13500F5A1450105ABA
:102F5E001550115A00D0D890153214321332123245
:102F6E00162EE6D700D00EC00EF00FC00FF010C018
:102F7E0010F011C011F01200000E096E000E0A6E54
:102F8E00000E0B6E000E0C6E05500610071008108A
:102F9E00D8B42FD0010E0D6E07D0D8900536063658
:102FAE00073608360D2A00D008BE02D0F6D700D05C
:102FBE00D89009360A360B360C360550015C065091
:102FCE0002580750035808500458D8A00AD005508C
:102FDE00015E0650025A0750035A0850045A0980DF
:102FEE0000D0D89008320732063205320D2EE0D7C7
:102FFE0000D009C001F00AC002F00BC003F00CC0F3
:10300E0004F01200190E256E000E266EFBD0250E52
:10301E002818D8B404D02850E7EC16F0F3D0000EE0
:10302E00276E07D01200278804D01DD0EBD0278C36
:10303E001AD017C0F6FF18C0F7FF174A182A080053
:10304E00F5CF28F02850000AD8B41200640AD8B47C
:10305E000AD00D0AD8B407D0050AD8B4E4D7190A95
:10306E00D8B4E5D7CFD027BC2FD027A80ED025C0F7
:10307E00D9FF26C0DAFFDECF21F0DECF22F0DECF81
:10308E0023F0DECF24F0040E0ED025C0D9FF26C0CB
:10309E00DAFFDECF21F0DDCF22F0000E22BEFF0ED2
:1030AE00236E246E020E2526000E262200D024AE9C
:1030BE002ED0030E2712241E231E221E216C000E5C
:1030CE0022222322242223D027A80ED025C0D9FFC6
:1030DE0026C0DAFFDECF21F0DECF22F0DECF23F0E6
:1030EE00DECF24F0040E0FD025C0D9FF26C0DAFFA4
:1030FE00DECF1DF0DDCF1EF01DC021F01EC022F070
:10310E00236A246A020E2526000E262200D0010E06
:10311E00286E0A0E2818D8B41CD001D01AD0285008
:10312E00040DFF0EF324F66E3D0EF420F76E09002B
:10313E00F550215C0900F55022580900F55023582E
:10314E000900F5502458D8A004D001D002D0282A66
:10315E00E0D727C01DF0030E1D16D8B404D02D0ED7
:10316E00E7EC16F000D028501F6E206A1FBE200616
:10317E003FD01FC01DF020C01EF0D8901D361E3649
:10318E00D8901D361E36FF0E1D24F66E3D0E1E20E7
:10319E00F76E0900F5CF05F00900F5CF06F009002E
:1031AE00F5CF07F00A00F5CF08F021C001F022C0DC
:1031BE0002F023C003F024C004F0C3EC17F001C0EA
:1031CE000EF002C00FF003C010F004C011F00A0E92
:1031DE00126E000E136E000E146E000E156E8BEC3A
:1031EE0017F00E50300F286E2850E7EC16F000D076
:1031FE001F06D8A020061F28BCE12028D8B402D074
:10320E00B8D700D017C0F6FF18C0F7FF174A182A14
:10321E000800F5CF28F02850D8B41200F8D61200C6
:10322E001200000E566E000E556E000E546E000EFD
:10323E00536E000E3D6E000E3E6E000E3F6E000E83
:10324E00406E000E486E000E496E000E4A6E000E65
:10325E004B6E010E336E000E346E000E356E000E88
:10326E00366E000E506E000E516E000E526E010E36
:10327E00456E000E4C6E000E426E000E416E000E3C
:10328E004F6E000E4E6E000E476E000E466E000E16
:10329E00446E000E436E700ED36E000ED26E090E8B
:1032AE00D56E000E5A6E000E596E700ED36E000E55
:1032BE00D26E630ED76EC00ED66E000EF26ED58E27
:1032CE000F0E926E1F0E936EC10E946E000E956EC3
:1032DE00000E966E0E0E0F01386F100E0F01396F25
:1032EE00000E0F013A6F000E0F013B6F000E0F0123
:1032FE003C6F000E026E440E016E04EC17F081B6A8
:10330E0005D0070E506002D0502A00D081A605D0FD
:10331E005050D8B402D0500600D081B405D0070E5C
:10332E00516002D0512A00D081A405D05150D8B49A
:10333E0002D0510600D081B205D0070E526002D0E5
:10334E00522A00D081A205D05250D8B402D05206D3
:10335E0000D080B005D0140E4C6002D04C2A00D0A4
:10336E0080A005D04C50D8B402D04C0600D0030E2D
:10337E005A18D8A4AFD0030E5918D8B404D0000EE2
:10338E00566E000E556E030E596E000E486EF80EF8
:10339E00496E000E4A6E000E4B6E8088060E50640B
:1033AE0002D0838602D0839600D0060E516402D0DE
:1033BE00848002D0849000D0060E52640DD0450455
:1033CE00D8A40AD0000E456E5750D8A403D0050ECF
:1033DE00576E02D0570600D05250D8A403D0010E1B
:1033EE00456E00D08350F80B4D6E12D04DC083FF4A
:1033FE0020D04D280BD04D50020F08D04D50030F4A
:10340E0005D04D50040F02D04D50070F836E11D0D2
:10341E005750000AD8B4EAD7010AD8B4EAD7030A3B
:10342E00D8B4E9D7010AD8B4E9D7070AD8B4E9D78E
:10343E00EBD7050E5718D8B402D0849202D08482EE
:10344E0000D05150D8A40DD05050D8A40AD0050E9B
:10345E005718D8A406D04504D8A403D0040E5A6E2B
:10346E0000D0E90E555C030E5658D8A029D04F5007
:10347E0004E19E0E4E5CD8A006D05A0E4E5C010E94
:10348E004F58D8A004D0050E5A6E030E586E4C50ED
:10349E00D8A405D0050E5A6E040E586E00D04750B3
:1034AE0004E1B40E465CD8A006D0F50E465C020EC2
:1034BE004758D8A005D0050E5A6E050E586E00D08E
:1034CE00554A562A55505610D8A404D05506D8A0A1
:1034DE00560600D0040E5A18D8A45ED0040E591801
:1034EE00D8B404D0000E566E000E556E040E596EF2
:1034FE00E80E486EE80E496E000E4A6E000E4B6ED8
:10350E008088839684828490010E456E070E5160EA
:10351E0007D0070E506004D0060E526404D000D0BF
:10352E00030E5A6E00D0E90E555C030E5658D8A005
:10353E0029D04F5004E19E0E4E5CD8A006D05A0EF4
:10354E004E5C010E4F58D8A004D0050E5A6E030ED5
:10355E00586E4C50D8A405D0050E5A6E040E586EF7
:10356E0000D0475004E1B40E465CD8A006D0F50E4C
:10357E00465C020E4758D8A005D0050E5A6E050EB1
:10358E00586E00D0554A562A55505610D8A404D01D
:10359E005506D8A0560600D0020E5A18D8A44ED002
:1035AE00020E5918D8B404D0000E566E000E556E89
:1035BE00020E596EE40E486EC80E496E000E4A6E2B
:1035CE00000E4B6E8088839684828490E90E555C43
:1035DE00030E5658D8A011D04F5004E19E0E4E5CEB
:1035EE00D8A006D05A0E4E5C010E4F58D8A005D06A
:1035FE00050E5A6E030E586E00D0710E555C170EE6
:10360E005658D8A006D04C50D8B403D0040E5A6EDB
:10361E0000D0310E555C750E5658D8A005D0050E4B
:10362E005A6E020E586E00D0554A562A55505610F4
:10363E00D8A404D05506D8A0560600D05A04D8A453
:10364E0039D05904D8B404D0000E566E000E556E03
:10365E00010E596EF00E486E000E496EF80E4A6E4F
:10366E00000E4B6E8098839684828490565004E1AF
:10367E00C80E555CD8A014D0425004E19E0E415C99
:10368E00D8A006D05A0E415C010E4258D8A005D0E3
:10369E00050E5A6E010E586E03D0020E5A6E00D0F1
:1036AE00554A562A55505610D8A404D05506D8A0BF
:1036BE00560600D0050E5A18D8A453D0050E591828
:1036CE00D8B404D0000E566E000E556E050E596E0F
:1036DE00565008E1650E555CD8B004D0FC0E486E0D
:1036EE00000E28D0000E486E000E496E000E4A6E77
:1036FE00000E4B6E5804D8A409D0F00E486E000E82
:10370E00496EF80E4A6E000E4B6E00D0030E58181E
:10371E00D8A409D0F00E486E000E496EF80E4A6E0F
:10372E00000E4B6E00D0040E5818D8A409D0E80E27
:10373E00486EE80E496E000E4A6E000E4B6E00D0BB
:10374E008098839684828490554A562A565004E176
:10375E00C80E555CD8A005D0000E566E000E556EE4
:10376E0000D05A50D8A429D0000E806E000E816E63
:10377E00000E826E070E836E000E846E000E3D6E7E
:10378E00000E3E6E000E3F6E000E406E000E506E2E
:10379E00000E516E000E526E000E456E050E576EE7
:1037AE00000E596E010E5A6E000E486E000E496ED6
:1037BE00000E4A6E000E4B6E00D080A812D0010E85
:1037CE003D26000E3E223F2240223D503E103F102D
:1037DE004010D8A406D03D06000E3E5A3F5A405A1D
:1037EE0000D0100E831AECEC16F0020E11EC17F04E
:1037FE0001C041F002C042F0010E11EC17F001C001
:10380E004EF002C04FF0030E11EC17F001C046F05F
:10381E0002C047F00B0E11EC17F001C043F002C0CE
:10382E0044F0534A542A545004E1640E535CD8A019
:10383E0005D0000E546E000E536E00D0535054102F
:10384E00D8A448D0AF0E176E3E0E186E5AC019F09F
:10385E001A6A09EC18F02AD0E20E176E3F0E186E97
:10386E0009EC18F037D0DC0E176E3F0E186E09EC0F
:10387E0018F030D0C70E176E3F0E186E09EC18F008
:10388E0029D0B70E176E3F0E186E09EC18F022D025
:10389E00BF0E176E3F0E186E09EC18F01BD0E80E17
:1038AE00176E3F0E186E09EC18F014D05A50000A1D
:1038BE00D8B4D2D7010AD8B4D6D7030AD8B4DAD737
:1038CE00010AD8B4DED7070AD8B4E2D7010AD8B4B1
:1038DE00E6D700D053045410D8A437D07D0E176EFF
:1038EE003E0E186E000E1A6E010E196E000E1C6E34
:1038FE00000E1B6E09EC18F03DC001F03EC002F048
:10390E003FC003F040C004F0640E056E000E066E5C
:10391E00000E076E000E086EC3EC17F001C02DF0FE
:10392E0002C02EF003C02FF004C030F0460E176E0A
:10393E003E0E186E2DC019F02EC01AF02FC01BF0BF
:10394E0030C01CF009EC18F000D0020E53185410C1
:10395E00D8A455D041C029F042C02AF0050ED89007
:10396E0029362A36E82EFBD7400E2924396E000E52
:10397E002A203A6E39C001F03AC002F0000E046EF1
:10398E00950E036E5DEC17F001C039F002C03AF0EF
:10399E001E0E3926000E3A22DA0E176E3E0E186EE5
:1039AE0039C029F03AC02AF0D8902A322932D8905C
:1039BE002A32293229C019F02AC01AF009EC18F05F
:1039CE0017D0970E176E3F0E186E09EC18F017D021
:1039DE000FD0A70E176E3F0E186E09EC18F00FD011
:1039EE0007D09F0E176E3F0E186E09EC18F007D019
:1039FE00AF0E176E3F0E186E09EC18F000D0030EC6
:103A0E0053185410D8A455D04EC029F04FC02AF0E8
:103A1E00050ED89029362A36E82EFBD7400E2924DB
:103A2E003B6E000E2A203C6E3BC001F03CC002F003
:103A3E00000E046E950E036E5DEC17F001C03BF0A8
:103A4E0002C03CF01E0E3B26000E3C223F0E176EAF
:103A5E003F0E186E3BC029F03CC02AF0D8902A3297
:103A6E002932D8902A32293229C019F02AC01AF0E8
:103A7E0009EC18F017D0970E176E3F0E186E09EC62
:103A8E0018F017D00FD0A70E176E3F0E186E09EC58
:103A9E0018F00FD007D09F0E176E3F0E186E09EC60
:103AAE0018F007D0AF0E176E3F0E186E09EC18F017
:103ABE0000D0040E53185410D8A410D083A607D0EB
:103ACE002B0E176E3F0E186E09EC18F007D0C50EB0
:103ADE00176E3E0E186E09EC18F000D0050E531836
:103AEE005410D8A448D0140E4624296E000E472038
:103AFE002A6E040E2B6ED8902A3229322B2EFBD72B
:103B0E0029C037F02AC038F0080E3726000E3822AA
:103B1E00530E176E3F0E186E37C029F038C02AF0BC
:103B2E00D8902A322932D8902A32293229C019F057
:103B3E002AC01AF009EC18F017D0970E176E3F0E28
:103B4E00186E09EC18F017D00FD0A70E176E3F0E97
:103B5E00186E09EC18F00FD007D09F0E176E3F0E9F
:103B6E00186E09EC18F007D0AF0E176E3F0E186ED8
:103B7E0009EC18F000D0060E53185410D8A434D007
:103B8E00445004E1640E435CD8A006D0910E435C11
:103B9E00010E4458D8A007D0620E176E3E0E186E56
:103BAE0009EC18F021D0B00E296EFF0E2A6E43C01C
:103BBE002BF044C02CF029502B262A502C22D890C2
:103BCE002C322B32D8902C322B322BC031F02CC011
:103BDE0032F0270E176E3E0E186E31C019F032C03D
:103BEE001AF009EC18F000D0070E53185410D8A490
:103BFE0010D084A007D08D0E176E3F0E186E09ECF4
:103C0E0018F007D0820E176E3F0E186E09EC18F0E2
:103C1E0000D0080E53185410D8A410D084A207D088
:103C2E00670E176E3F0E186E09EC18F007D0750E62
:103C3E00176E3F0E186E09EC18F000D0090E5318CF
:103C4E005410D8A445D0980E176E3E0E186E09EC7F
:103C5E0018F02AD0890E176E3F0E186E09EC18F068
:103C6E0037D0EE0E176E3F0E186E09EC18F030D0EE
:103C7E00F90E176E3F0E186E09EC18F029D0F40EDF
:103C8E00176E3F0E186E09EC18F022D0D50E176E77
:103C9E003F0E186E09EC18F01BD0CE0E176E3F0EAD
:103CAE00186E09EC18F014D05750000AD8B4D9D7B2
:103CBE00010AD8B4DDD7030AD8B4E1D7010AD8B4C3
:103CCE00E5D7070AD8B4E9D7010AD8B4C3D700D0CC
:103CDE000A0E53185410D8A41DD0170E176E3F0E8F
:103CEE00186E50C019F01A6A09EC18F0060E5064DE
:103CFE0007D0940E176E3F0E186E09EC18F00AD00E
:103D0E005050D8A407D0890E176E3F0E186E09ECCE
:103D1E0018F000D00B0E53185410D8A41DD0030E5B
:103D2E00176E3F0E186E51C019F01A6A09EC18F092
:103D3E00060E516407D0940E176E3F0E186E09ECE6
:103D4E0018F00AD05150D8A407D0890E176E3F0E26
:103D5E00186E09EC18F000D00C0E53185410D8A49D
:103D6E001DD0EF0E176E3E0E186E52C019F01A6A65
:103D7E0009EC18F0060E526407D0940E176E3F0E23
:103D8E00186E09EC18F00AD05250D8A407D0890E3C
:103D9E00176E3F0E186E09EC18F000D0485033180D
:103DAE000AE14950341807E14A50351804E14B50E6
:103DBE003618D8B415D09B8C48C001F049C002F01B
:103DCE004AC003F04BC004F031EC17F09B9C48C086
:103DDE0033F049C034F04AC035F04BC036F000D055
:103DEE00F2B45CEF19F0FCD75CEF19F000EF00F0C5
:103DFE0000010000000A00000064000000E803005B
:103E0E000010270000A086010040420F0080969807
:103E1E000000E1F50500CA9A3B0D0A4C50524F20A6
:103E2E00436173652074656D70657261747572653A
:103E3E00203D2025752043000D0A52423130205579
:103E4E007074696D65203D20256C64207365636F09
:103E5E006E6473000D0A54656D702053656E736F3A
:103E6E0072206F75742D6F662D72616E6765000D11
:103E7E000A4669726D776172652056657273696F55
:103E8E006E203D2025752E2575000D0A436F6D623F
:103E9E002067656E657261746F7220726174652041
:103EAE00000A0A0D3E3E3E3E3E0D0A537461746595
:103EBE00202825752920000D0A385620537570705C
:103ECE006C79207261696C204F4646000D0A496E6E
:103EDE0070757420766F6C74616765203D20257552
:103EEE00000D0A434F4D4220737769746368202892
:103EFE0025752920000D0A434D4F532073776974A1
:103F0E006368202825752920000D0A444953542042
:103F1E00737769746368202825752920000D0A3887
:103F2E005620537570706C79207261696C204F4EFB
:103F3E00000D0A4C50524F20766F6C7461676520ED
:103F4E003D202575000D0A4C616D7020766F6C74E6
:103F5E00616765203D202575000D0A446976696408
:103F6E006572204F4646000D0A4469766964657293
:103F7E00204F4E000D0A434D4F53204F4646000D25
:103F8E000A434D4F53204F4E002E3030205644439F
:103F9E00002E353020564443002E323520564443F1
:103FAE00002E373520564443004F5045524154455C
:103FBE00005354414E444259005741524D55500002
:103FCE003130304B487A003530304B487A00505201
:103FDE004F5645005245534554004641554C5400EA
:103FEE0031304D487A00314D487A00354D487A00CF
:023FFE000000C1
:020000040020DA
:08000000FFFFFFFFFFFFFFFF00
:020000040030CA
:0E000000FF18073CFFBF81FF03C003E0034071
:00000001FF
